:020000022000DC
:106000000000012071630200596302005B6302001B
:106010005D6302005F630200616302000000000034
:1060200000000000000000000000000063630200A8
:1060300065630200000000006763020069630200FC
:10604000B5A102006B630200C9AE020049D4020090
:106050006B6302006B630200E9AB02005DD90200D2
:106060006B6302006B6302006B6302006B630200F0
:106070006B6302006B6302006B6302006B630200E0
:106080006B630200318202006B6302006B630200EB
:10609000718202006B630200C90103006B6302009E
:1060A0006B6302006B6302006B6302006B630200B0
:1060B0006B6302006B630200000000000000000040
:1060C0006B6302006B6302006B6302006B63020090
:1060D000B5D802006B6302006B6302000000000091
:1060E00000000000000000000000000000000000B0
:1060F00000000000000000000000000000000000A0
:10610000000000000000000000000000000000008F
:10611000000000000000000000000000000000007F
:10612000000000000000000000000000000000006F
:10613000000000000000000000000000000000005F
:10614000000000000000000000000000000000004F
:10615000000000000000000000000000000000003F
:10616000000000000000000000000000000000002F
:10617000000000000000000000000000000000001F
:10618000000000000000000000000000000000000F
:1061900000000000000000000000000000000000FF
:1061A00000000000000000000000000000000000EF
:1061B00000000000000000000000000000000000DF
:1061C00000000000000000000000000000000000CF
:1061D00000000000000000000000000000000000BF
:1061E00000000000000000000000000000000000AF
:1061F000000000000000000000000000000000009F
:10620000344935480A1A02D0072291438D46334952
:1062100033480A1A06D00722914381F309880222E3
:1062200082F314882F483049304A00F041F8304852
:106230003049314A00F03CF830483149314A00F0E9
:1062400037F831483149324A00F032F831483249A2
:10625000324A00F02DF832483249334A00F028F82B
:1062600032483349334A00F023F833483349002297
:1062700000F029F832483349002200F024F832486F
:106280003249091A0AF042FD314A90471F48204915
:10629000884205D00268043003B4904703BCF7E796
:1062A00000208646EC46002000212A4A9047FEE75F
:1062B000884207D0521A05D0037801300B700131A3
:1062C000013AF9D17047884202D002700130FAE7F2
:1062D000704700000000012000E0002000000120C5
:1062E00000000120F4290300A8180020281900202C
:1062F000D0630200D0630200200D0300F4290300E4
:10630000A8180020A8180020E40D0300E40D0300E5
:10631000E40D0300E40D0300E40D0300E40D0300AD
:10632000E40D0300E40D0300F4290300742A0300C4
:106330002819002028190020281900209024002066
:1063400090240020902400209024002090440020DD
:106350009963020035DF0200FEE7FEE7FEE7FEE795
:10636000FEE7FEE7FEE7FEE7FEE7FEE7704700BF59
:106370001048804710484FF00701884385460F4872
:1063800080470F48016841F470010160BFF34F8FEF
:10639000BFF36F8FFFF734BF0A480B490B4A88429F
:1063A00007D0521A05D0037801300B700131013A41
:1063B000F9D170476D63020000000120F1940200E2
:1063C00088ED00E0E40D0300A8180020A8180020C4
:1063D00000B585B00190019B002B0AD0074B43F01C
:1063E00001030393019B9B010293039B029898472F
:1063F00000E000BF05B05DF804FB00BFF00D030036
:1064000000B583B00190019B002B0AD04FF47A7045
:10641000FFF7DEFF019B013B0193019B002BF5D1B0
:1064200000E000BF03B05DF804FB08B509F086FE8C
:1064300000BF08BD00B589B0039002910192019B95
:10644000002B33D00023079303230693029A079B64
:106450001344019A1946002009F020FE0590079A7E
:10646000059B13440793019A059BD31A0193059B3F
:10647000002B13D10F4B1B7883F00103DBB2002BF1
:1064800013D10120FFF7BCFF069B013B0693069B3F
:10649000002B03D1074B00221A7007E0054B0122A5
:1064A0001A70019B002BD1D100E000BF00BF09B0E2
:1064B0005DF804FB2819002000B585B00390029117
:1064C000054B00934023054A0299039800F012F807
:1064D00000BF05B05DF804FB356402002C190020F4
:1064E00082B0019000BF02B0704782B0019000BF3F
:1064F00002B0704700B5A1B00590049103920293D9
:10650000049802F07BFD039B1593029B16930023D6
:10651000179300238DF8603000231993229B1A9360
:1065200000231F930FA91F9B0822049802F040FE2E
:1065300008231F93119B1293BDF84030ADF84C30E7
:10654000BDF84230ADF84E3000238DF851309DF843
:106550003C3003F00303DBB2012B26D10F9BC3F3C6
:1065600095231C939DF83C30C3F3C203DBB28DF836
:106570005030BDF83C30C3F38313DBB21B931B9B3D
:106580009A0009A91F9B049802F012FE1B9B9B0016
:106590001F9A13441F9312AA09A915AB009313461F
:1065A0001B9A1C9801F012F82FE09DF83C3003F084
:1065B0000303DBB2022B28D1BDF83E30C3F38913AD
:1065C0009BB21E939DF83C30C3F3C203DBB28DF83F
:1065D00050301E9B082B28BF08231D9307A91F9B23
:1065E0001D9A049802F0E4FD1F9A1D9B13441F930B
:1065F0001E9A1D9BD31A1E9315AB12AA07A81D99AC
:1066000001F086F81E9B002BE3D1049802F005FDF3
:1066100000BF21B05DF804FB00B583B00190019B81
:106620001B781A460C4B9B5C002B05D0019B043356
:10663000184605F0E1FE0BE0019B1B781A46064B5D
:106640009B5C002B04D1019B0C33184605F086F8A7
:1066500000BF03B05DF804FBB420002000B587B094
:106660000390029113468DF8073000230593039B96
:106670001B781A46114B9B5C002B09D0039B0433FB
:106680009DF807200299184605F0E4FE05900FE0FA
:10669000039B1B781A46094B9B5C002B08D1039B7C
:1066A0000C339DF807200299184605F0CDF80590A7
:1066B000059B184607B05DF804FB00BFB42000201E
:1066C00082B001900091034B01221A7000BF02B00A
:1066D000704700BFAC19002030B58DB003468DF86F
:1066E00007301A4B02AC1D460FCD0FC495E80F00C2
:1066F00084E80F00062302934FF0FF3303934FF01B
:10670000FF3304934FF0FF3305934FF0EB7308937F
:106710009DF80730002B01D00D4A00E0002202ABAB
:1067200019460C4803F066FB0B900B9B0A930A9BDF
:10673000002B04D0084A43210A9801F0ABF8074A1D
:106740009DF80730137000BF0DB030BD5C0E030024
:10675000C1660200A8180020F80D0300AD19002042
:1067600000B583B001238DF807309DF80730184637
:10677000FFF7B2FF00BF03B05DF804FB00B589B0BE
:10678000039002910192019B8DF81F30124B002261
:106790001A709DF81F301A4602991048FFF75EFFE5
:1067A0000690069B0593059B002B04D00C4A5321B1
:1067B000059801F06FF800BF0A4B1B78002B07D03B
:1067C000054B1B78DBB283F00103DBB2002BF3D166
:1067D00000BF09B05DF804FBAC190020A818002028
:1067E000F80D0300AD19002000B585B003900291AB
:1067F000054B00934023054A02990398FFF77AFE60
:1068000000BF05B05DF804FB7D6702006C19002035
:1068100082B0019000BF02B07047000000B583B0A5
:1068200001900548FFF7F8FE0020FFF755FF00BF75
:1068300003B05DF804FB00BFA818002082B00190EF
:10684000019BDB6801225A7100BF02B07047000053
:1068500000B583B04FF0FF330193FFF7E6FD04214D
:10686000114800F0CDFD0190019B002B03DA0F4988
:10687000412007F099FA0C48FFF7E0FFFFF770FF9F
:1068800004210B4800F0BCFD0190019B002B03DAB2
:106890000649482007F088FA0548FFF7CFFF00BFF8
:1068A00003B05DF804FB00BFC40D0300AC0E030091
:1068B000D40D030000B583B001900091019B1B68CB
:1068C0001B6800990198984700BF03B05DF804FB6E
:1068D00000B583B00190019B1B685B6801989847E5
:1068E00000BF03B05DF804FB00B583B00190019BCD
:1068F0001B689B680198984700BF03B05DF804FBD4
:1069000082B001900B468DF80330019BDB689DF847
:1069100003201A7100BF02B0704782B00190019B42
:10692000DB681B79184602B0704782B00190019B6A
:10693000DB6801225A7100BF02B0704782B001903B
:10694000019BDB685B79184602B0704700B585B0E3
:1069500001900091154BFF229A60144B00221A609F
:10696000124B00225A60114B0022C3F818240F4B1F
:106970000022C3F814240D4B002283F820240C4875
:1069800002F0A0FA0390039B002B01D0039B08E0C8
:10699000084802F0CBFC084A084BD31ADB080293E4
:1069A0000023184605B05DF804FB00BF181B00204B
:1069B000400D0300140F0300C40D0300540D030029
:1069C000024A034BD31ADB0818467047C40D030074
:1069D000540D030000B587B001900B468DF80330CD
:1069E0009DF80330002B1FD0FFF7EAFF049000232F
:1069F000059313E0059B9B000E4A13440393039BEE
:106A00001B881A46019B1B689A4204D1019B059A78
:106A10001A60002309E0059B01330593059A049B46
:106A20009A42E7D3052300E00023184607B05DF83B
:106A300004FB00BFA818002000B585B001900B46EC
:106A40008DF803309DF8032001AB11461846FFF77F
:106A5000C1FF0346002B07D1019BDB00054A13440D
:106A60000393039B1B6800E00023184605B05DF804
:106A700004FB00BF540D030084B001900B468DF859
:106A80000330019BDB00174A134402939DF8033047
:106A9000013B032B1CD801A252F823F0AD6A02007F
:106AA000B56A0200BD6A0200C76A020002238DF8BF
:106AB0000F3011E004238DF80F300DE0029B1B799D
:106AC0008DF80F3008E0029B5B798DF80F3003E002
:106AD00000238DF80F3000BF9DF80F30184604B02A
:106AE000704700BF540D030084B001900091002353
:106AF0008DF80F30019B1B7803F00403DBB2002BF1
:106B000024D0019B1B78C3F30103DBB2012B02D01D
:106B1000022B0CD017E0009B1B68019A1288C2F36D
:106B20008312D2B213449A1C009B1A600BE0009BA4
:106B30001B68019A5288C2F3891292B213449A1CBC
:106B4000009B1A6000BF01238DF80F309DF80F30B5
:106B5000184604B07047000000B58BB00023ADF8B4
:106B600026303E4801F0C2FC3D4801F0BFFC3D4BE1
:106B70005B6804933B4B9B680693049A069B134007
:106B800002339B00374A13440433089304AB19467D
:106B90000898FFF7A9FF0346002B09D0049A069B2B
:106BA000134002339B002F4A134404330893EDE74C
:106BB00000BF0023079311E0049B5A1C0492069A1D
:106BC0001340079A920001A90A44264902339B0008
:106BD0000B445B681360079B01330793079B012BF2
:106BE000EAD99DF80430C3F30103DBB2012B10D0C6
:106BF000022B1CD1BDF80A30ADF82630BDF80630A6
:106C0000C3F389139BB203339A08049B1344049380
:106C100013E0BDF80A30ADF82630BDF80430C3F3F8
:106C20008313DBB21A46049B1344049305E00E4918
:106C30004FF4BF7007F0B8F800BF094801F062FCDC
:106C40000590059B002B02D0049B064A5360BDF8BB
:106C5000263018460BB05DF804FB00BF301F002043
:106C60002C1F0020181B0020240F030000B585B046
:106C70000021074801F0C3FB0390039B0293029B92
:106C800083F310030193019B184605B05DF804FBE4
:106C9000341F002000B589B0039002910192009347
:106CA000039B1B0C0793FFF7E1FF0690FFF788FE9D
:106CB0000246079B934204D3214940F2A31007F0F8
:106CC00073F8069B1904009B5A1C0A9B1340079AF1
:106CD0000A431C4902339B000B445A60009A0A9BEA
:106CE000134002339B00174A134404330593039B5C
:106CF00003F00703D9B2059A137861F3C503137043
:106D0000019B03F00F03D9B2059A138861F389132D
:106D10001380029BC3F31501059A136861F39F2347
:106D20001360059A1378012161F301031370059A2A
:106D300013786FF38203137000BF09B05DF804FB92
:106D4000240F0300181B002000B58DB003900291A2
:106D500013468DF80730039B02330A9301238DF805
:106D6000273000238DF81B300DF11B03184601F06E
:106D7000F9FA404B1A68029B1A603E4B9A683D4BE9
:106D800059683C4B1B68CB1A134401330B9314E036
:106D90000121394801F07AFBFFF7DEFE07900799E1
:106DA000354801F073FB334B9A68324B5968314BCD
:106DB0001B68CB1A134401330B930A9A0B9B9A421C
:106DC000E6D89DF82730002B48D0002305939DF886
:106DD0000730002B17D09DF81430012262F3010315
:106DE0008DF814309DF8143043F004038DF81430FE
:106DF000039B03F00F03DAB2BDF8143062F389137A
:106E0000ADF8143016E09DF81430022262F301034D
:106E10008DF814309DF8143043F004038DF81430CD
:106E2000039BC3F309039AB2BDF8163062F38F13C4
:106E3000ADF816300F4B1A680E4B9B6813400233A7
:106E40009B000C4A134404330893059A089B1A606C
:106E5000084B1A680A9B1344064A13609DF81B30BE
:106E6000184601F095FA9DF8273018460DB05DF8E8
:106E700004FB00BF181B0020341F002000B58BB09E
:106E800005900491039202931F4B9B68079306ABF6
:106E9000012219460298FFF757FF0346002B24D022
:106EA000069B023309930023089311E0089B9B0083
:106EB000039A1A44099B591C099107990B401268BF
:106EC000114902339B000B445A60089B013308931D
:106ED000089A029B9A42E9D3069A079B00931346AD
:106EE000029A04990598FFF7D5FE074B93F82034D2
:106EF000002B05D000BF00F07BF80346002BFAD131
:106F000000BF0BB05DF804FB181B002000B583B078
:106F1000019000910023002200990198FFF7AEFF35
:106F200000BF03B05DF804FB00B587B00390029189
:106F30000192019B059305AA012302990398FFF78B
:106F40009DFF00BF07B05DF804FB00B587B003905C
:106F5000029101920093019B0493009B059304AA64
:106F6000022302990398FFF789FF00BF07B05DF87D
:106F700004FB00B589B00390029101920093019B3C
:106F80000593009B06930A9B079305AA0323029986
:106F90000398FFF773FF00BF09B05DF804FB00B56D
:106FA0008BB00390029101920093019B0593009B8B
:106FB00006930C9B07930D9B08930E9B099305AAC0
:106FC000052302990398FFF759FF00BF0BB05DF846
:106FD00004FB0000054B5A68044B1B689A420CBF27
:106FE00001230023DBB21846704700BF181B0020A6
:106FF00000B599B0FFF7EEFF0346002B01D0002348
:10700000BEE19B4B0022C3F81824BFF34F8F00BF93
:10701000974B5B680493964B9B681093049A109B64
:10702000134002339B00924A13440433119300230C
:1070300017930023169300230F9304AB194611985E
:10704000FFF752FD0346002B19D0894BD3F81834B3
:10705000002B14D1864B1A68049B9A4205D8844BA6
:107060001B68834A536000238AE1049A109B1340F3
:1070700002339B007E4A134404331193DDE700235F
:10708000159311E0049B5A1C0492109A1340159A10
:10709000920001A90A44764902339B000B445B68C5
:1070A0001360159B01331593159B012BEAD99DF8AD
:1070B000043003F00303DBB2022B40F09C80BDF8E8
:1070C0000630C3F389139BB20D93BDF80630C3F3AA
:1070D00089139BB2502B28BF50239BB20C930C9B5F
:1070E000C3F309039AB2BDF8063062F38F13ADF80B
:1070F00006300C9B08330B939DF80430C3F3C20396
:10710000DBB20F930B995B4801F0E7FE1790179BDA
:10711000002B00F0D180179801F070FF01A9169B99
:107120000822179802F026F8169B08331693049B42
:10713000DA43109B134001339B000A930C9A0A9B7D
:107140009A4242D90A9B002B08D0049A109B134004
:1071500002339B00464A1344043300E0464B089335
:107160000A9B002B02D00A9BDBB201E00C9BDBB236
:107170008DF81F300A9B002B01D03F4B00E000230D
:1071800006930A9B002B06D00C9BDAB20A9BDBB25B
:10719000D31ADBB200E000238DF817309DF81F20D2
:1071A000169B0899179801F0E5FF9DF81F30169A75
:1071B00013441693069B002B16D09DF81720169BA0
:1071C0000699179801F0D6FF0EE0049A109B134021
:1071D00002339B00264A134404330993169B0C9AEE
:1071E0000999179801F0C6FF0D9B03339A08049B79
:1071F0001344049360E09DF8043003F00303DBB212
:10720000012B59D1BDF80430C3F38313DBB2062B35
:1072100028BF0623DAB2BDF8043062F38913ADF853
:107220000430BDF80430C3F38313DBB202330E9392
:107230009DF80430C3F3C203DBB20F930E9B9B0097
:1072400019460C4801F049FE1790179B002B33D0CC
:10725000179801F0D3FE01A9169B0822179801F098
:1072600089FF169B08331693002315931BE000BF7C
:10727000181B0020400D0300241B0020049B5A1CF7
:107280000492109A134002339B003F4A1344191D85
:10729000169B0422179801F06DFF169B043316937A
:1072A000159B01331593BDF80430C3F38313DBB290
:1072B0001A46159B9342E1D3179B002B40D0324BCB
:1072C000D3F810341493304BD3F81834002B1BD060
:1072D000179801F0A2FE4DE000238DF84F3014986E
:1072E000FFF72CFB0346002B02D001238DF84F3013
:1072F0009DF84F30002B03D017991498FFF7DAFA56
:10730000149BDB681B681493149B002BE4D1179823
:1073100001F083FE00238DF803300DF103031846BE
:1073200001F020F8184BD3F81834002B02D1049B3D
:10733000154A53609DF80330184601F029F819E00A
:10734000114BD3F81034129306E01298FFF7CCFAE1
:10735000129BDB681B681293129B002BF5D10B4A22
:107360000B4BD31ADB081B0443F0020309491846F0
:10737000FFF7CCFDFFF72EFE034683F00103DBB2DF
:10738000184619B05DF804FB181B0020940D03008B
:10739000540D0300840F030000B585B00023039350
:1073A00023E0164BD3F81034029301238DF80730F5
:1073B0000FE00298FFF7B1FA03461A46039B934287
:1073C00003D100238DF8073006E0029BDB681B68C1
:1073D0000293029B002BECD19DF80730002B01D0CB
:1073E000039B07E0039B01330393039B092BD8DD29
:1073F0004FF0FF33184605B05DF804FB181B002062
:1074000000B585B001900B468DF80330FFF7C4FF3F
:107410000390039BB3F1FF3F01D1039B22E0039B49
:10742000DBB219460198FFF76BFA104BD3F8103412
:10743000002B08D10D4A019BC2F81034019BDB6878
:1074400000221A600DE0094BD3F81034DA68019B72
:10745000DB6812681A60054BD3F81034DB68019AB8
:107460001A60039B184605B05DF804FB181B00204A
:1074700000B583B00D4BD3F8103401930B4B0122B0
:1074800083F8202409E00198FFF74FFA0198FFF7ED
:107490001FFA019BDB681B680193019B002BF2D153
:1074A00000BF00BF03B05DF804FB00BF181B002045
:1074B00082B00190009100BF02B0704710B584B057
:1074C00003900291039BDB88002B0AD0039BDB888F
:1074D0001A461F4B009313461E4A1F49029801F09B
:1074E0004DF9039B1B7A052B2ED0039B5B7A002B57
:1074F00012D0039B9B881A46039B1B7A19461046A1
:10750000FFF7BAFA03461A46144B53F822301A46CC
:107510001349029801F032F9039B1B68194602983F
:10752000FFF7C6FF039B1B7A1A460E4B53F8224007
:10753000039B9B8800211846FFF77EFA03462246EC
:107540000949029801F01AF900BF04B010BD00BF4C
:10755000B80F0300C80F030000100300E01800205C
:1075600018100300CC1800201C10030000B585B0D3
:107570000390029113468DF80730039B1B7A052B6D
:107580000FD0039B5B7A002B06D00D4B1B681A466D
:107590000C49029801F0F2F80B49029801F0EEF85C
:1075A00007E09DF80730002B03D00749029801F04F
:1075B000E5F8029801F0C0F800BF05B05DF804FBE3
:1075C000E0180020181003002810030030B58BB01D
:1075D00007900691059204930E9B1B7B8DF8273034
:1075E0000E9B00221A730E990498FFF767FF059B04
:1075F000062B7FD801A252F823F000BF19760200B3
:107600002376020033760200477602006576020098
:107610008D760200BD76020007990E9801F0AEF853
:1076200069E0069B1B681A4607990E9801F0A6F8B8
:1076300061E0069B1A68069B04331B6807990E9845
:1076400001F09CF857E0069B1A68069B0433196802
:10765000069B08331B6800930B4607990E9801F0B0
:107660008DF848E0069B1968069B04331868069B52
:1076700008331B68069A0C32126801920093034685
:107680000A4607990E9801F079F834E0069B1868CD
:10769000069B04331C68069B08331B68069A0C3251
:1076A00012680699103109680291019200932346ED
:1076B000024607990E9801F061F81CE0069B1C68D1
:1076C000069B04331D68069B08331B68069A0C3220
:1076D0001268069910310968069814300068039002
:1076E0000291019200932B46224607990E9801F0D1
:1076F00045F800E000BF00220E990498FFF736FF1E
:107700000E9B9DF827201A7300BF0BB030BD00BF41
:1077100000B587B00390029101920093029B082B61
:107720005CD8009B1B7B8DF81330009B00221A73E2
:1077300000990198FFF7C2FE0023059314E0059A13
:10774000029B9A4209D2039A059B13441B781A465E
:107750002449009801F012F803E02349009801F051
:107760000DF8059B01330593059B072BE7D91F49AE
:10777000009801F003F80023059322E0059A029B8C
:107780009A4217D2039A059B13441B788DF8123046
:107790009DF81230184609F0EAF90346002B02D092
:1077A0009DF8123000E02E231A461149009800F08F
:1077B000E5FF03E00F49009800F0E0FF059B01336F
:1077C0000593059B072BD9D9012200990198FFF752
:1077D000CDFE009B9DF813201A7300E000BF07B098
:1077E0005DF804FB2C100300341003003810030074
:1077F0003C1003004010030086B0039002910192F8
:1078000001238DF817309DF81730214A039B136030
:107810001F4A029B53601E4A019B9360039B44F2E4
:107820000102934213D0039B44F20202934221D1FE
:10783000019B174AD360164BDB681B881A46144B12
:107840009A61134BDB685B68114AD36112E0019BBC
:107850000F4A13610E4B1B699B680D4A53610C4B19
:107860001B691B680A4A9361094B1B695B68084ADC
:10787000D36100BF72B600BF00BF9DF81730DBB206
:10788000002BFAD162B600BF00BF06B0704700BF40
:107890003C1F002000B583B002900091019244F299
:1078A000010071466A4600F003F803B000BD00BF56
:1078B00030B58BB007900691059272B600BFFFF706
:1078C000D7FD00BFFFF794FB0346002BFAD1079BBF
:1078D00044F2020293422FD0079B44F202029342E9
:1078E00069D8079B44F20102934237D0079B44F2C8
:1078F000010293425FD8079B012B05D0079B41F201
:10790000010293420CD056E0394A3A4BD31ADB08B5
:107910001B0443F0010338491846FFF7F7FA57E014
:10792000334A344BD31ADB081B0443F001033349B9
:107930001846FFF7EBFA4BE0059B09932C4A2D4BB9
:10794000D31ADB081B0443F00100099B5B681A464D
:10795000099B1B882A49FFF7F8FA39E0059B089331
:10796000234A244BD31ADB081B0443F00104089B71
:107970009D68089B9B68184601F052FD0346184617
:10798000089B5B681946089B1B68069A0292019344
:10799000009103462A461B492046FFF700FB144A84
:1079A000144BD31ADB081B0443F001031649184695
:1079B000FFF7ACFA0CE00E4A0E4BD31ADB081B049F
:1079C00043F00103069A11491846FFF7ADFA00BFCC
:1079D0000F4B1B6803F00103002B00D000BE059A7B
:1079E00006990798FFF708FF00BF0BB030BD00BF36
:1079F000940D0300540D03004410030064100300B1
:107A000088100300A4100300CC100300E010030052
:107A1000F0ED00E082B003468DF807309DF80730A6
:107A200003F01F0205499DF907305B09012000FAA8
:107A300002F241F8232000BF02B0704700E100E0ED
:107A400082B003468DF807309DF8073003F01F021F
:107A500006499DF907305B09012000FA02F2203344
:107A600041F8232000BF02B0704700BF00E100E0F2
:107A700082B003468DF807309DF8073003F01F02EF
:107A800006499DF907305B09012000FA02F24033F4
:107A900041F8232000BF02B0704700BF00E100E0C2
:107AA00082B003468DF807309DF8073003F01F02BF
:107AB00006499DF907305B09012000FA02F26033A4
:107AC00041F8232000BF02B0704700BF00E100E092
:107AD00000B585B00190019B002B0AD0074B43F005
:107AE00001030393019B9B010293039B0298984718
:107AF00000E000BF05B05DF804FB00BF001103000B
:107B000008B50D4B4FF48032C3F844230A4B4FF4B1
:107B10008032C3F804231120FFF7C2FF1120FFF7C2
:107B200079FF054B01221A602F20FFF7D1FF034B8D
:107B300001221A7000BF08BD001001407A20002009
:107B400008B51120FFF77CFF0E4B4FF48032C3F8CD
:107B500048230C4B4FF48032C3F80823094B012211
:107B60005A602F20FFF7B4FF064B01229A60064BA4
:107B700000221A602F20FFF7ABFF044B00221A707F
:107B800000BF08BD001001406C2000207A200020BA
:107B9000024BD3F804351846704700BF001001406F
:107BA00082B001900091019A009BD31A23F07F4389
:107BB000184602B07047000082B00190034A019B52
:107BC000C2F8403500BF02B0704700BF001001404E
:107BD00086B00190284B1B68002B03D1264A019BDD
:107BE000136045E0019B1A68234B1B681B689A428F
:107BF00010D8214B1B681968019B1A681E4B1B6823
:107C00008A1A1A601C4B1A68019BDA611A4A019B96
:107C100013602DE0019B1B680393174B1B680593B2
:107C2000154B1B68049309E0049B1B68039AD31A45
:107C30000393049B0593049BDB690493049B002B33
:107C400004D0049B1B68039A9A42EDD8049B002B36
:107C500005D0049B1A68039BD21A049B1A60019BEF
:107C6000039A1A60019B049ADA61059B019ADA6112
:107C700000BF06B0704700BF6820002000B587B085
:107C800001902A4B1B680393284B1B680593059BA7
:107C9000049308E0049A019B9A4208D0049B059340
:107CA000049BDB690493049B002BF3D100E000BF2D
:107CB000049B002B01D1002333E0059A049B9A42D8
:107CC00014D11A4B1B68DB69184A1360174B1B68E9
:107CD000002B0BD1164B01229A60164B00221A6022
:107CE000154B01221A702F20FFF7F2FE049B1B6830
:107CF0000293049BDA69059BDA61059BDB690493B7
:107D0000049B002B05D0049B1A68029B1A44049B19
:107D10001A60064B1B68039A9A4214BF0123002382
:107D2000DBB2184607B05DF804FB00BF68200020F6
:107D3000001001406C2000207B20002008B511209D
:107D4000FFF796FE00BF08BD08B51420FFF790FEB0
:107D500000BF08BD00B583B00190019B5B69019A2B
:107D600092691046984700BF03B05DF804FB00001D
:107D700000B585B02B4B1B68002B4ED00023019320
:107D8000FFF706FF0246284B1B6819461046FFF70F
:107D900007FF0290234B1B6803931DE0039B1B68A6
:107DA000029A9A421CD3039B1B68029AD31A02932D
:107DB000039B1B68019A13440193039B0093039B4D
:107DC000DB690393009B1B7C002B05D0009B0022EA
:107DD0001A740098FFF7BEFF039B002BDED100E072
:107DE00000BF124B1A78124B1B789A420CD1104BE1
:107DF0001B780133DAB20E4B1A700D4B1B78022B35
:107E000002D10B4B00221A70094B1B781946094A04
:107E1000019B42F82130FFF797FF00BF05B05DF8E6
:107E200004FB00BF682000206C2000207820002088
:107E3000792000207020002082B00190184B1A7821
:107E4000184B1B789A4223D0154B1B780133DAB2BA
:107E5000134B1A70124B1B78022B02D1104B0022CD
:107E60001A700F4B1B781A460F4B53F82220019BB8
:107E70001A60019B1A680D4B1B6813440B4A136070
:107E80000A4B1B6823F07F43084A1360012303E079
:107E9000019B00221A600023184602B0704700BF01
:107EA0007820002079200020702000206C20002005
:107EB00088B00390029101920023079338E0204B91
:107EC0001B680693069B1B68039A9A4206D2069B80
:107ED0001A68039BD21A069B1A602EE0069B1B6849
:107EE000039AD31A0393069B1B68079A13440793BC
:107EF000069B00221A60124B1B680593069BDB69E8
:107F00000F4A1360069BDB68002B11D0029A079B77
:107F1000134423F07F42069B5A60069BDA68069B57
:107F20009A60019B1A68069BDA61019B059A1A60A8
:107F3000034B1B68002BC2D100BF00BF08B07047C5
:107F40006820002000B589B0019000238DF81F3013
:107F5000664B1B680593AAE0019B002B05D0019B93
:107F60000693069BDB69019361E0614B1B781A461F
:107F700013465B001344DB005D4A1344043304934F
:107F80005B4B1B780133DAB2594B1A70584B1A7895
:107F9000574B9B789A4202D1554B00221A70049B92
:107FA0005B680693049B1B78032B1ED0032B7EDC9F
:107FB000012B1FD0022B7AD1049B5B681846FFF778
:107FC0005DFE0346002B02D001238DF81F30069B77
:107FD00000221A746BE0454B1B680393039B00223D
:107FE0001A74039BDB69414A1360404B1B68002BEA
:107FF000F1D15CE000BF069B1B7C002B00D056E05B
:10800000049B9A68069B5A60049BDA68069B9A60F8
:10801000049B1A69069BDA60049B5A69069B9A6165
:10802000344B1B78002B02D0069B00225A60069B23
:108030005A68314B1B68D31A23F07F432F4A93426F
:108040000ED8069B5B682C4A126811461846FFF74B
:10805000A7FD0246069B9B681A44069B1A6017E020
:10806000254B1A68069B5B6819461046FFF798FD7A
:108070000290069B9B68029A9A4206D2069B9A68D7
:10808000029BD21A069B1A6002E0069B00221A602D
:10809000069B00225A60069B00229A60069B0122E2
:1080A0001A74069B0022DA610698FFF791FD019B86
:1080B000002B7FF451AF0E4B1A780D4B5B789A4230
:1080C0007FF44AAF9DF81F30002B04D1074B1B688B
:1080D000059A9A4201D0012300E0002303F0010336
:1080E000DBB2184609B05DF804FB00BF6820002031
:1080F0005C1F00207B2000206C200020FEFF7F0002
:1081000010B588B00190274B1B68002B44D0254B3D
:108110001B681B680793FFF73BFD0690224B1B680B
:10812000059305990698FFF73BFD03460333049337
:108130001E4B1B7883F00103DBB2002B01D0FFF74D
:10814000DFFC049A079B934238BF1346059A1344F9
:108150000593059B23F07F4305930598FFF72CFDBE
:10816000FFF716FD039006990398FFF719FD0346E4
:10817000DC1C06990598FFF713FD03469C420DD9B8
:10818000FFF706FD03461846FFF716FD2F20FFF701
:108190009FFCFFF7D3FD01E0FFF7D2FC00BF08B062
:1081A00010BD00BF682000206C2000207A20002035
:1081B00000B587B00023019300238DF81730194BC9
:1081C0001B680493184B1B6803936B461846FFF714
:1081D00033FE03468DF80B309DF80B30002B08D092
:1081E000009B01AA04991846FFF762FE01238DF84F
:1081F0001730019B1846FFF7A5FE0346002B02D05F
:1082000001238DF817309DF81730002B02D003980A
:10821000FFF776FF054B00221A7000BF07B05DF82C
:1082200004FB00BF6C200020682000207B20002081
:1082300008B50E4B0022C3F840210C4B0022C3F8B6
:1082400044210A4B0022C3F84821084B0022C3F8FE
:108250004C21064B0022C3F80021044B0022C3F836
:108260000421FFF785FD00BF08BD00BF00100140DD
:1082700008B5FFF79DFF00BF08BD82B0EFF3108384
:108280000093009B019372B600BF019B184602B099
:10829000704762B600BF00BF7047000000B585B0F0
:1082A0000190FFF7EAFF0390164B9B68002B1BD150
:1082B000144B01229A60144BD3F88020134B1340C7
:1082C000104A1360104B114AC3F880200E4BD3F8AC
:1082D00084300C4A53600C4B4FF0FF32C3F88420BB
:1082E000019B00221A7002E0019B01221A70039B7D
:1082F000002B01D1FFF7CDFF0023184605B05DF834
:1083000004FB00BF7C20002000E100E0FC06FFBD74
:1083100000B585B003468DF80730104B9B68002BE5
:1083200016D09DF80730002B12D1FFF7A6FF03905F
:108330000B4A0A4B1B681360094A084B5B68536081
:10834000064B00229A60039B002B01D1FFF7A1FF8F
:108350000023184605B05DF804FB00BF7C20002018
:1083600000E100E000B583B0019000F02BF8034677
:10837000012B03D00549432005F016FD0198FFF7B6
:108380008DFF00BF03B05DF804FB00BF08110300C0
:1083900000B583B003468DF8073000F013F80346AC
:1083A000012B03D00649512005F0FEFC9DF8073053
:1083B0001846FFF7ADFF00BF03B05DF804FB00BF38
:1083C0000811030084B0EFF305830193019BC3F30D
:1083D00008030393039B002B0DD1EFF31483009349
:1083E000009B0293029B03F00103002B0CBF0123AF
:1083F0000023DBB200E00123184604B0704710B43C
:1084000087B001900091019B009A53E8004F1046FD
:1084100043E8000191F0000FF7D105940490039117
:10842000059B184607B05DF8044B704710B487B041
:1084300001900091019B009A53E8004F44EA02002A
:1084400043E8000191F0000FF6D1059404900391E8
:10845000049B184607B05DF8044B704710B487B012
:1084600001900091019B009A53E8004F04EA02003A
:1084700043E8000191F0000FF6D1059404900391B8
:10848000059B184607B05DF8044B704710B487B0E1
:1084900001900091019B009A53E8004F04EB020009
:1084A00043E8000191F0000FF6D105940490039188
:1084B000049B184607B05DF8044B704710B487B0B2
:1084C00001900091019B009A53E8004FA4EB020039
:1084D00043E8000191F0000FF6D105940490039158
:1084E000049B184607B05DF8044B704700B583B095
:1084F000019001210198FFF799FF0346184603B048
:108500005DF804FB00B583B0019000210198FFF7EE
:10851000A5FF0346184603B05DF804FB00B583B021
:1085200001900B468DF80330019B002B03D10849C5
:10853000E82005F039FC019BDA689DF803300199C9
:10854000098A01FB03F31344184603B05DF804FBEA
:108550006811030000B583B001900091019B002BCE
:1085600003D10849F52005F01FFC009B019AD26851
:108570009B1A019A128AB3FBF2F3DBB2184603B0DE
:108580005DF804FB6811030000B585B00190019B04
:10859000002B01D10E234CE0019B1B68002B03D163
:1085A0002649FF2005F000FC019B5B68002B04D1ED
:1085B00022494FF4807005F0F7FB019B9B68002B6C
:1085C00004D11E4940F2011005F0EEFB019BDB686F
:1085D000002B04D119494FF4817005F0E5FB019B94
:1085E0001B8A002B04D1154940F2031005F0DCFB77
:1085F000019B9A68019B5B68D31A8DF80F30019B31
:108600001B68019A52681A6007E0019B1A68136898
:10861000591C11609DF80F201A709DF80F305A1EDA
:108620008DF80F20002BF0D1019B1B6800221A71DE
:108630000023184605B05DF804FB00BF6811030075
:1086400000B585B00190019B002B04D11F494FF468
:10865000927005F0A9FB0023039300238DF80A30E4
:108660000DF10A031846FFF77DFE019B1B681A688F
:10867000019B5B689A421FD9019B1B681A68013AEB
:108680001A601B681B7819460198FFF747FF039093
:10869000019B9A68019B1B681B68D31A8DF80B30ED
:1086A000019B1B681B799DF80B209A4204D9019B02
:1086B0001B689DF80B201A719DF80A301846FFF7C9
:1086C00067FE039B184605B05DF804FB68110300C4
:1086D00010B584B001900091019B002B04D1154985
:1086E00040F2471005F060FB009B002B04D11149BC
:1086F0004FF4A47005F058FB009B039300238DF802
:108700000B300DF10B031846FFF72CFE019B1B6885
:108710001C68621C1A6003990198FFF71BFF03464F
:1087200023709DF80B301846FFF732FE00BF04B0EF
:1087300010BD00BF6811030000B583B00190019B1C
:10874000002B03D10C49312005F02EFB019B9B68C7
:10875000002B0CD0019B5B69019A1069019A11688A
:10876000019A92689847019B00229A6000E000BF3E
:1087700003B05DF804FB00BFC01103000EB400B5E8
:1087800084B00190019B002B03D11849422005F0D1
:108790000BFB019B5B69002B03D11449432005F0BF
:1087A00003FB019B1B68002B03D11049442005F0FB
:1087B000FBFA019B5B68002B03D10C49452005F0B7
:1087C000F3FA059B002B0AD00023039306AB039317
:1087D00003AB1A460599019800F0B0F900E000BF1C
:1087E00004B05DF804EB03B0704700BFC011030094
:1087F00000B583B001900B468DF80330019B1A68D9
:10880000019B9B68581C0199886013449DF80320C4
:108810001A70019B9A68019B5B689A4202D3019887
:10882000FFF78AFF00BF03B05DF804FB00B587B017
:10883000039002910192009300230593009B03F0A3
:108840000103002B24D00BE0029B01330293059B14
:10885000013305939DF8133019460398FFF7C8FFBD
:10886000029B1B788DF813309DF81330002BEBD151
:1088700006E0019B013B019320210398FFF7B8FF1D
:10888000019A059B9A422ED9019B002BF1D12AE037
:10889000029B002B0BD0029808F0ACF9059006E083
:1088A000019B013B019320210398FFF7A1FF019A4F
:1088B000059B9A420FD9019B002BF1D10BE0029B43
:1088C00001330293059B013305939DF8133019463C
:1088D0000398FFF78DFF029B1B788DF813309DF8EE
:1088E0001330002BEBD100BF07B05DF804FB000094
:1088F00000B589B00390029101920093029B079307
:108900000123069307E0079A019BB2FBF3F3079359
:10891000069B01330693079A019B9A42F3D2009A71
:10892000069B9A4201D9009B06930B9B03F001031F
:10893000002B22D10A9B002B1FD00B9B03F00203BC
:10894000002B06D0009B002B03D130238DF817306D
:1089500002E020238DF8173008E00A9B013B0A93C0
:108960009DF8173019460398FFF742FF0A9B002B2A
:1089700003D0069A0A9B9A42EFD301230793009BE8
:10898000012B03D9009B013B009309E0029A079B4E
:10899000B2FBF3F30493049A019B9A4200D205E0E0
:1089A000079B019A02FB03F30793E8E7029A079BF0
:1089B000B2FBF3F30493049B079A02FB03F3029ABE
:1089C000D31A0293154A049B13441B781946039843
:1089D000FFF70EFF079A019BB2FBF3F30793079B88
:1089E000002BE3D10B9B03F00103002B11D00A9B5A
:1089F000002B0ED006E00A9B013B0A93202103982E
:108A0000FFF7F6FE0A9B002B03D0069A0A9B9A42B8
:108A1000F1D300BF09B05DF804FB00BF681203008A
:108A200000B589B00590049103920293049B002B3A
:108A3000B8BF5B4206930123079307E0039B069AA6
:108A400092FBF3F30693079B01330793039B069A6C
:108A50009A42F3DA029A079B9A4201D9029B079342
:108A60000A9B002B0AD0049B002B04DB0B9B03F01A
:108A70000403002B02D00A9B013B0A930B9B03F0DB
:108A80000203002B02D0029B002B16D00B9B03F09D
:108A90000103002B11D10A9B002B0ED006E00A9B8C
:108AA000013B0A9320210598FFF7A2FE0A9B002BA9
:108AB00003D0079A0A9B9A42F1D3049B002B07DA52
:108AC000049B5B4204932D210598FFF791FE08E07B
:108AD0000B9B03F00403002B03D02B210598FFF719
:108AE00087FE0B9B03F00203002B19D00B9B03F0B6
:108AF0000103002B14D1029B002B11D10A9B002BE8
:108B00000ED006E00A9B013B0A9330210598FFF73F
:108B10006FFE0A9B002B03D0079A0A9B9A42F1D35F
:108B200004990B9B01930A9B0093029B039A05985F
:108B3000FFF7DEFE00BF09B05DF804FB00B58FB0A3
:108B4000059004910392059B002B04D1AD494FF48D
:108B50009F7005F029F9059B5B69002B04D1A94999
:108B60004FF4A07005F020F9059B1B68002B04D181
:108B7000A44940F2411005F017F9059B5B68002BF2
:108B800004D1A0494FF4A17005F00EF9049B002B0D
:108B900000F09381049B1B788DF83730049B0133E0
:108BA00004939DF83730002B00F07E819DF837301C
:108BB000252B40F06D8100230A9301230C93049B25
:108BC0001B788DF837309DF83730302B0DD0302B97
:108BD0001BDC2B2B11D02D2B17D10A9B43F001034B
:108BE0000A93049B0133049312E00A9B43F00203AF
:108BF0000A93049B013304930AE00A9B43F00403A5
:108C00000A93049B0133049302E000230C9300BFFA
:108C10000C9B002BD3D1002309939DF837302A2BCE
:108C20000CD1039B1B68191D039A11601B68099ADC
:108C300013440993049B013304931AE0049B1B78AB
:108C40008DF837309DF837302F2B12D99DF83730FB
:108C5000392B0ED8049B01330493099A13469B00C9
:108C600013445B001A469DF837301344303B099398
:108C7000D3E700230B93049B1B788DF837309DF8C6
:108C800037302E2B1DD1049B01330493049B1B789A
:108C90008DF837309DF837302F2B12D99DF83730AB
:108CA000392B0ED8049B013304930B9A13469B0077
:108CB00013445B001A469DF837301344303B0B9346
:108CC000E4E7049B1B788DF837309DF837306C2B28
:108CD00003D09DF83730682B07D1049B01330493F0
:108CE000049B1B788DF83730EFE79DF83730252B44
:108CF00000F0C480252BC0F2C680782B00F3C3801F
:108D0000582BC0F2C080583B202B00F2BC8001A23F
:108D100052F823F0098E0200878E0200878E02002F
:108D2000878E0200878E0200878E0200878E0200E7
:108D3000878E0200878E0200878E0200878E0200D7
:108D4000998D0200BB8D0200878E0200878E020083
:108D5000878E0200878E0200BB8D0200878E020084
:108D6000878E0200878E0200878E0200878E0200A7
:108D7000878E0200498E0200878E0200878E0200D5
:108D80002D8E0200878E0200DF8D0200878E02008A
:108D9000878E0200098E0200039B1B68191D039A2F
:108DA00011601B680C930C9B8DF81F309DF81F30D1
:108DB00019460598FFF71CFD66E0039B1B68191D0B
:108DC000039A11601B680C930A9B0193099B009303
:108DD0000B9B0A220C990598FFF722FE54E0039B97
:108DE0001B68191D039A11601B680C930C990A9B50
:108DF0000193099B00930B9B0A220598FFF778FDCE
:108E000042E000BF10120300039B1B68191D039A68
:108E100011601B680C930C990A9B0193099B0093AA
:108E20000B9B10220598FFF763FD2DE0039B1B6849
:108E3000191D039A11601B6808930A9B099A0899E7
:108E40000598FFF7F3FC1FE0039B1B68191D039AAD
:108E500011601B680C9330210598FFF7C9FC78213D
:108E60000598FFF7C5FC0C99002301930823009394
:108E7000082310220598FFF73BFD05E02521059802
:108E8000FFF7B6FC00E000BF049B0133049305E04C
:108E90009DF8373019460598FFF7AAFC049B1B780C
:108EA000002B7FF477AE00E000BF059B1B7B002BFF
:108EB00004D00598FFF740FC00E000BF0FB05DF85C
:108EC00004FB00BF00B583B001900198FFF75CFB85
:108ED0000346184603B05DF804FB00B58BB0019063
:108EE0000091019B1B8A043B0793009A079B134444
:108EF000DA1C079BB2FBF3F38DF81B300198FFF7E8
:108F00009FFB0590059B002B01D1002338E0059BBA
:108F100000221A71059B01225A71079B9AB2059B88
:108F2000DA80059B09939DF81B30013B0493099B54
:108F3000019A1A60002308931DE00198FFF780FB57
:108F40000390039B002B0ED0059B5B790133DAB2B3
:108F5000059B5A71099B039A1A60039B019A1A6038
:108F6000039B099304E0059800F00EF8002307E046
:108F7000089B01330893089A049B9A42DDD3059B12
:108F800018460BB05DF804FB00B58BB00190019B57
:108F90000793079B5B798DF81B30019B08939DF825
:108FA0001B30013B05930023099305E0089B1B68D8
:108FB0000893099B01330993099A059B9A42F5D3BB
:108FC000089B1B680493019B0893002309930BE003
:108FD000089B1B68039308990498FFF779FB039B90
:108FE0000893099B013309939DF81B30099A9A4213
:108FF000EED300BF00BF0BB05DF804FB00B585B039
:109000000190019B0393039B043301211846FFF752
:109010003DFA00BF05B05DF804FB00B587B00190D4
:10902000019B0593059B043301211846FFF746FA7F
:109030000346039303AB0493049B1B78002B02D1DC
:109040000198FFF7A1FF00BF07B05DF804FB000027
:1090500000B591B00390029101920093039B002B05
:1090600003D14349B62004F09FFE039B0993039B61
:109070000F93099BDB881A46099B5B7902FB03F37C
:10908000043B0893009A089B9A4203D33849C420B2
:1090900004F08AFE099BDB880793009B1A1D079B3F
:1090A000B2FBF3F30E93009B0433079AB3FBF2F287
:1090B000079901FB02F29B1A0D93019B1A68009B12
:1090C0001344089A9A4203D2089A009BD31A01E0EB
:1090D000019B1B680C93019B0C9A1A6005E00F9B87
:1090E0001B680F930E9B013B0E930E9B002BF6D13A
:1090F00000230B93079A0D9BD31A0A930A9A0C9B91
:10910000934228BF13460A932AE0029A0B9B13440A
:1091100006930F9A0D9B1344043305939DF8483032
:10912000002B05D00A9A0599069807F093FD04E0F4
:109130000A9A0699059807F08DFD00230D930F9B61
:109140001B680F930C9A0A9BD31A0C930B9A0A9BD9
:1091500013440B93079A0C9B934228BF13460A9320
:109160000C9B002BD1D100BF00BF11B05DF804FBF8
:109170007812030000B589B0059004910392029320
:10918000039B079307AA00230093029B0499059869
:10919000FFF75EFF079B039A9A4203D00349F6202C
:1091A00004F002FE00BF09B05DF804FB7812030072
:1091B00000B589B00590049103920293039B079335
:1091C00007AA01230093029B04990598FFF740FF2B
:1091D000079B039A9A4204D004494FF4807004F02C
:1091E000E3FD00BF09B05DF804FB00BF7812030087
:1091F00082B003468DF807309DF8073003F01F0258
:1092000006499DF907305B09012000FA02F260333C
:1092100041F8232000BF02B0704700BF00E100E02A
:1092200000B583B00190019B002B03D10649722049
:1092300004F0BAFD019B00221A60BFF35F8F00BFEC
:1092400000BF03B05DF804FB2413030041DF704747
:1092500000BF184600B585B000238DF803300DF12E
:1092600003031846FFF77EF8F1EE103A0193019BD5
:109270000393039B23F09F030293029BE1EE103ABA
:1092800000BFBFF35F8F00BF2620FFF7B1FF9DF83F
:1092900003301846FFF77CF8039B03F00703002B0D
:1092A00003D004497D2004F07FFD00BF05B05DF8C8
:1092B00004FB00BF6813030008B5064B00221A70B8
:1092C0000548FFF7ADFF0549054800F04DF80023BC
:1092D000184608BD8C20002088200020C4130300FD
:1092E0009020002000B583B0FFF7B4FF06F03EFFEA
:1092F0000346002B0ED0FFF7A9FF0190019B002B26
:109300000ED0019B022B0BD007494FF4B07004F034
:109310004BFD05E020BF00BF40BF00BF20BF00BF26
:1093200000BF03B05DF804FB6813030082B0019036
:10933000019B9B6800229A60019B9B6800221A6136
:10934000019B9B6800225A61019B9B680022DA60A6
:10935000019B9B6800225A60019B9B6800221A6057
:1093600000BF02B07047000000B583B001900091CB
:10937000019B002B03D11049502004F015FD009BE8
:10938000002B03D10C49512004F00EFD019B009AE3
:109390001A60019B1B681A68019B5A60019B5A68FE
:1093A000019B1B685B689A4202D1019B00225A60B4
:1093B00000BF03B05DF804FBD013030000B583B019
:1093C0000190019B002B03D11449632004F0ECFCB5
:1093D000019B1B68002B03D11049642004F0E4FCBE
:1093E000019B5B68002B14D0019B5B681A46019BB4
:1093F0001B689B6813441A46019B5A60019B5A687C
:10940000019B1B685B689A4204D1019B00225A6051
:1094100000E000BF03B05DF804FB00BFD013030001
:1094200000B585B00190019800F00EF80390039B01
:10943000002B01D0039B00E0024B184605B05DF8FD
:1094400004FB00BF4414030086B00190164B059343
:10945000164B04931FE0049A059BD31ADB10DA0F16
:1094600013445B10DB00059A13440393039B1B68B2
:109470000293029A019B9A4202D9039B04930AE049
:10948000029A019B9A4203D2039B0833059302E0A0
:10949000039B5B6804E0059A049B9A42DBD300239C
:1094A000184606B0704700BF441803006C1903004B
:1094B000BFF34F8F00BF074BDB6803F4E062054941
:1094C000054B1343CB60BFF34F8F00BF00BF00BFFE
:1094D000FCE700BF00ED00E00400FA05024B034A80
:1094E0001A6000BF704700BF041900200090D0032D
:1094F00008B500F069F90346002B06D0A04B1B68A5
:109500001B0AA04A03F01F03136000F089F9034609
:10951000002B02D09C4B9D4A1A6000F09DF9034637
:10952000002B06D09A4B1B685B0B9A4A03F007038B
:10953000136000F0BDF90346002B05D0964BDB68A5
:10954000954A23F08073D36000F0CEF90346002BD8
:109550000ED04FF080430022C3F80C214FF080431F
:109560000022C3F810214FF080430022C3F83825B1
:1095700000F0E6F90346002B02D0884B03221A6064
:1095800000F0FAF90346002B0BD0854B05221A6038
:10959000844B01221A60844B00221A60834B3F22C5
:1095A0001A6000F005FA0346002B76D04FF0805386
:1095B0007F4AD3F80434C2F820354FF080537C4AF8
:1095C000D3F80834C2F824354FF08053784AD3F8E2
:1095D0000C34C2F828354FF08053754AD3F8103454
:1095E000C2F82C354FF08053714AD3F81434C2F8C6
:1095F00030354FF080536E4AD3F81834C2F8343502
:109600004FF080536A4AD3F81C34C2F840354FF00B
:109610008053674AD3F82034C2F844354FF0805362
:10962000634AD3F82434C2F848354FF08053604A77
:10963000D3F82834C2F84C354FF080535C4AD3F845
:109640002C34C2F850354FF08053594AD3F8303497
:10965000C2F854354FF08053554AD3F83434C2F829
:1096600060354FF08053524AD3F83834C2F864352D
:109670004FF080534E4AD3F83C34C2F868354FF06F
:1096800080534B4AD3F84034C2F86C354FF08053C6
:10969000474AD3F84434C2F8703500F0A5F90346C0
:1096A000002B05D0434B1B68434A03F04F03136064
:1096B00000F0C6F90346002B0DD04FF08043D3F8DD
:1096C000003403F00103002B05D04FF080436FF00E
:1096D0000102C3F8002400F0DFF90346002B05D097
:1096E000364B1B68354A43F480631360344BD3F820
:1096F0008830334A43F47003C2F88830BFF34F8F89
:1097000000BFBFF36F8F00BF4FF01023D3F80032BC
:10971000002B05DB4FF01023D3F80432002B2BDA9B
:10972000284B0122C3F8042500BF264BD3F8003490
:10973000002BFAD04FF010231522C3F8002200BFEF
:10974000204BD3F80034002BFAD04FF01023152211
:10975000C3F8042200BF1B4BD3F80034002BFAD00F
:10976000184B0022C3F8042500BF164BD3F8003471
:10977000002BFAD0FFF79CFEFFF7B0FE00BF08BD3C
:10978000240300104035014074C007400DF0ADBA0D
:10979000440200103C050040F0ED00E0A005004050
:1097A000105600408856004018560040145600409D
:1097B00000C0004058020010E40E00403C1700407A
:1097C00000ED00E000E00140124B1B68DBB2062B0D
:1097D0001DD1114B1B6803F00F03002B17D10F4B4A
:1097E0001B6803F0F003302B01D1012310E00B4B79
:1097F0001B6803F0F003402B01D1012308E0074B65
:109800001B6803F0F003502B01D1012300E000237B
:1098100018467047E00F00F0E40F00F0E80F00F08A
:109820000A4B1B68DBB2062B0DD1094B1B6803F0FA
:109830000F03002B07D1074B1B6803F0F003302BFD
:1098400001D1012300E0002318467047E00F00F02B
:10985000E40F00F0E80F00F0124B1B68DBB2062BA0
:109860001DD1114B1B6803F00F03002B17D10F4BB9
:109870001B6803F0F003302B01D1012310E00B4BE8
:109880001B6803F0F003402B01D1012308E0074BD4
:109890001B6803F0F003502B01D1012300E00023EB
:1098A00018467047E00F00F0E40F00F0E80F00F0FA
:1098B0000A4B1B68DBB2062B0DD1094B1B6803F06A
:1098C0000F03002B07D1074B1B6803F0F003302B6D
:1098D00001D1012300E0002318467047E00F00F09B
:1098E000E40F00F0E80F00F0124B1B68DBB2062B10
:1098F0001DD1114B1B6803F00F03002B17D10F4B29
:109900001B6803F0F003302B01D1012310E00B4B57
:109910001B6803F0F003402B01D1012308E0074B43
:109920001B6803F0F003502B01D1012300E000235A
:1099300018467047E00F00F0E40F00F0E80F00F069
:109940000A4B1B68DBB2062B0DD1094B1B6803F0D9
:109950000F03002B07D1074B1B6803F0F003302BDC
:1099600001D1012300E0002318467047E00F00F00A
:10997000E40F00F0E80F00F00A4B1B68DBB2062B87
:109980000DD1094B1B6803F00F03002B07D1074BC8
:109990001B6803F0F003302B01D1012300E000230A
:1099A00018467047E00F00F0E40F00F0E80F00F0F9
:1099B0000A4B1B68DBB2062B0DD1094B1B6803F069
:1099C0000F03002B07D1074B1B6803F0F003502B4C
:1099D00001D1012300E0002318467047E00F00F09A
:1099E000E40F00F0E80F00F0124B1B68DBB2062B0F
:1099F0001DD1114B1B6803F00F03002B17D10F4B28
:109A00001B6803F0F003302B01D1012310E00B4B56
:109A10001B6803F0F003402B01D1012308E0074B42
:109A20001B6803F0F003502B01D1012300E0002359
:109A300018467047E00F00F0E40F00F0E80F00F068
:109A4000124B1B68DBB2062B1DD1114B1B6803F0B8
:109A50000F03002B17D10F4B1B6803F0F003302BC3
:109A600001D1012310E00B4B1B6803F0F003402BE6
:109A700001D1012308E0074B1B6803F0F003502BD2
:109A800001D1012300E0002318467047E00F00F0E9
:109A9000E40F00F0E80F00F0064B1B68062B05D121
:109AA000054B1B68062B01D1012300E0002318465B
:109AB000704700BF300100103401001082B003462F
:109AC0008DF807309DF8073003F01F0206499DF915
:109AD00007305B09012000FA02F2203341F823200D
:109AE00000BF02B0704700BF00E100E008B506F01B
:109AF0003DFB034683F00103DBB2002B03D1054994
:109B0000792004F051F900F03BFB034B00229A70DE
:109B100000BF08BD741903009820002000B583B071
:109B200000230193144B1B78002B02D08523019353
:109B30001CE0114B00229A600F4B00225A600E4B22
:109B400000221A610C4B0022DA600C4800F0DEFAA9
:109B5000019006F00BFB034683F00103DBB2002B00
:109B600001D000F0F9FA044B01221A70019B18464B
:109B700003B05DF804FB00BF98200020559C020054
:109B800084B00190019B1B680393039B002B03D0BF
:109B9000039B1A68019B1A60039B184604B0704728
:109BA00000B583B0164B1B78002B04D115494FF438
:109BB000857004F0F9F8124BDB68002B04D11149D1
:109BC00040F20B1004F0F0F800238DF807300DF18F
:109BD00007031846FEF7C6FB094BDB68013B084A42
:109BE000D360074BDB68002B01D1FFF77FFF9DF8A7
:109BF00007301846FEF7CCFB00BF03B05DF804FB4E
:109C0000982000207419030000B585B003468DF834
:109C100007309DF80730002B02D10C4B039301E075
:109C20000B4B03930398FFF7ABFF0290029B002BB3
:109C300006D0029B5B689DF8072010469847F1E725
:109C400000BF00BF05B05DF804FB00BFA0200020EE
:109C5000A820002000B583B003468DF807309DF89A
:109C60000730002B05D10A4B01225A700020FFF764
:109C7000CBFF9DF80730012B05D1054B01229A70CF
:109C80000120FFF7C1FF00BF03B05DF804FB00BF78
:109C90009820002000B583B001900091019B002B1B
:109CA00005D1054B01225A700020FFF7ADFF00BF20
:109CB00003B05DF804FB00BF9820002000B585B01C
:109CC000034600918DF807309DF80730032B29D00B
:109CD000032B35DC002B02D0012B04D030E0002018
:109CE000FFF7ECFE2DE000238DF80F300DF10F0390
:109CF0001846FEF737FB154B1B7883F00103DBB2E8
:109D0000002B01D0FFF70AFF104BDB6801330F4A2D
:109D1000D3600E4B01229A709DF80F301846FEF763
:109D200037FB0EE0094B1B78002B04D1084940F2A9
:109D3000452004F039F800F00FFAFFF731FF00E09A
:109D400000BF00BF05B05DF804FB00BF98200020F5
:109D50007419030000B589B001900091009B07932E
:109D6000019B1B788DF80C30019B5B680493019B71
:109D70001B7A8DF81430019BDB680693074A079B1A
:109D800052F823300649079A51F8221003AA1046C8
:109D9000984700BF09B05DF804FB00BFAC2000206D
:109DA000B020002000B589B001900091009B07937E
:109DB000019B1B788DF80C30019B5B680493019B21
:109DC0009B68DBB28DF81430019BDB680693074A71
:109DD000079B52F823300649079A51F8221003AA2C
:109DE0001046984700BF09B05DF804FBAC20002086
:109DF000B020002030B58FB0039002910192039BF8
:109E00001B780C9326490C9B019A41F82320029B56
:109E10001A6924490C9B41F82320029B5B7F194659
:109E2000214A0C9B13440A461A70029B04AC1D463F
:109E30000FCD0FC495E80F0084E80F000C9B08932A
:109E400000230D93039B1B781A46174B9B5C002B3A
:109E50000DD0039B181D019B002B01D0134A00E07D
:109E6000002204AB194602F061FA0D9014E0039B46
:109E70001B781A460C4B9B5C002B0DD1039B03F106
:109E80000C00019B002B01D0094A00E0002204AB2A
:109E9000194601F0F9FB0D900D9B18460FB030BD2F
:109EA000AC200020B0200020B4200020559D0200EE
:109EB000A59D020082B003468DF807309DF807305B
:109EC00003F01F0205499DF907305B09012000FAE4
:109ED00002F241F8232000BF02B0704700E100E029
:109EE00082B003468DF807309DF8073003F01F025B
:109EF00006499DF907305B09012000FA02F2603340
:109F000041F8232000BF02B0704700BF00E100E02D
:109F100082B0034600918DF807309DF90730002B81
:109F20000CDA009BDAB20C499DF8073003F00F03FE
:109F3000043B5201D2B20B441A7609E0009BDAB21C
:109F400006499DF907305201D2B20B4483F8002331
:109F500000BF02B0704700BF00ED00E000E100E08C
:109F600000B583B003460A468DF8073013468DF8D6
:109F700006309DF80630012B03D99DF80630032BDF
:109F80000BD99DF80630042B03D99DF80630072B1A
:109F900003D908496B2003F007FF9DF806209DF9BF
:109FA000073011461846FFF7B3FF00BF03B05DF856
:109FB00004FB00BFCC19030000B583B003468DF845
:109FC00007309DF907301846FFF78AFF9DF90730E3
:109FD0001846FFF76FFF00BF03B05DF804FB0000F9
:109FE00082B003468DF807300F4A9DF90730002BE9
:109FF00000DA1F335B115BB252F823209DF9073062
:10A00000594203F01F0301F01F0158BF4B425BB2DE
:10A0100022FA03F303F00103002B14BF01230023F2
:10A02000DBB2184602B0704700E100E082B0019058
:10A030004FF08042019BC2F8083300BF02B0704766
:10A0400082B003468DF807309DF8073003F1804356
:10A0500001221A6000BF02B0704784B00346ADF819
:10A060000630BDF8063003F1804300221A60BDF8C7
:10A07000063003F180431B680393039B00BF04B0C9
:10A08000704782B00346ADF80630BDF8063003F1E4
:10A0900080431B68002B14BF01230023DBB218464A
:10A0A00002B0704782B001904FF08042019BC2F82D
:10A0B000183500BF02B070474FF08043D3F8183412
:10A0C0001B0C03F00103002B14BF01230023DBB2A0
:10A0D0001846704700B583B006238DF8073000207E
:10A0E000FFF77EFF034683F00103DBB2002B08D0AD
:10A0F0009DF8073019460020FFF732FF0020FFF7D8
:10A100005BFF00BF03B05DF804FB000000B585B045
:10A110000190019B002B03D10D49A22003F044FEC6
:10A12000002303930B4B1B79002B02D08523039351
:10A1300008E0084A019B1360064B01221A71054B87
:10A1400000225A71039B184605B05DF804FB00BF5E
:10A15000041A0300B820002008B5074B1B79002B18
:10A1600003D10649BB2003F01FFEFFF7B3FF012018
:10A17000FFF798FF00BF08BDB8200020041A0300B5
:10A1800008B50A4B1B79002B03D10949F22003F0D3
:10A190000BFE0C20FFF754FF00BFFFF78DFF0346B7
:10A1A000002BFAD100BF00BF08BD00BFB8200020BF
:10A1B000041A030008B54FF48070FFF762FF0346EE
:10A1C000002B14D04FF48070FFF747FF0120FFF7FA
:10A1D0002DFF114B5B7983F00103DBB2002B06D01E
:10A1E0000D4B01225A710C4B1B68002098474FF40D
:10A1F0008270FFF746FF0346002B0AD04FF48270AF
:10A20000FFF72BFF0220FFF711FF034B1B68012014
:10A21000984700BF08BD00BFB820002082B00346A9
:10A220008DF807309DF8073003F01F0205499DF9AE
:10A2300007305B09012000FA02F241F8232000BF39
:10A2400002B0704700E100E082B003468DF80730AD
:10A250009DF8073003F01F0206499DF907305B099E
:10A26000012000FA02F2603341F8232000BF02B05F
:10A27000704700BF00E100E082B0034600918DF816
:10A2800007309DF90730002B0CDA009BDAB20C493D
:10A290009DF8073003F00F03043B5201D2B20B4488
:10A2A0001A7609E0009BDAB206499DF9073052019F
:10A2B000D2B20B4483F8002300BF02B0704700BF46
:10A2C00000ED00E000E100E000B583B003460A467F
:10A2D0008DF8073013468DF806309DF80630012BB7
:10A2E00003D99DF80630032B0BD99DF80630042BBB
:10A2F00003D99DF80630072B03D908496B2003F0DA
:10A3000053FD9DF806209DF9073011461846FFF7CA
:10A31000B3FF00BF03B05DF804FB00BF5C1A03008D
:10A3200000B583B003468DF807309DF90730184615
:10A33000FFF78AFF9DF907301846FFF76FFF00BF50
:10A3400003B05DF804FB00B583B00346ADF80630FA
:10A35000BDF80630184600F026F803461B68012BAE
:10A360000CBF01230023DBB2184603B05DF804FBE9
:10A3700000B585B00346ADF80630BDF80630184686
:10A3800000F011F803461A4600231360BDF80630AA
:10A39000184600F008F803461B680393039B00BFB0
:10A3A00005B05DF804FB82B00346ADF80630BDF899
:10A3B000063003F1804303F5C043184602B07047EE
:10A3C00082B00190034A019BC2F8043300BF02B07F
:10A3D000704700BF0060004082B00190034BD3F88B
:10A3E0000423019B1340184602B0704700600040F0
:10A3F00082B00190084A019B03F5A27352F8233002
:10A40000054943F00102019B03F5A27341F82320A3
:10A4100000BF02B0704700BF0060004084B00390EE
:10A42000029113468DF80730144A039B03F5A2737B
:10A4300052F82330114923F4473323F44073039A2D
:10A4400002F5A27241F822300C4A039B03F5A27375
:10A4500052F82320029B1B0203F4F8519DF80730A9
:10A460001B0403F440330B4304491A43039B03F5D5
:10A47000A27341F8232000BF04B070470060004081
:10A4800082B00190054A019B03F5A27352F8233074
:10A490001B0A03F01F03184602B07047006000401B
:10A4A00082B00190064A019B03F5A27352F8233053
:10A4B0001B0C03F00303DBB2184602B0704700BF69
:10A4C0000060004000B583B00190019B1B681F2B0A
:10A4D00004D905494FF4E87003F066FC4FF0A0433F
:10A4E000184603B05DF804FB8C1A030000B585B074
:10A4F0000190084611461A4603468DF803300B4674
:10A500008DF8023013468DF8013001AB1846FFF785
:10A51000D9FF03909DF803209DF802305B001A4399
:10A520009DF801309B001A439DF818301B0242EA47
:10A5300003019DF81C301B04019A1943039B02F58B
:10A54000E07243F8221000BF05B05DF804FB00B5CF
:10A5500085B003900B468DF80B309DF80B30002230
:10A56000019200220092002200210398FFF7BEFF13
:10A5700000BF05B05DF804FB00B585B0019001ABEC
:10A580001846FFF79FFF0390019A039B02F5E072C4
:10A5900053F8223023F002030293019A039B02F541
:10A5A000E072029943F8221000BF05B05DF804FB89
:10A5B00000B585B001900B468DF8033001AB18460D
:10A5C000FFF780FF0390019A039B02F5E07253F8B6
:10A5D0002230019A23F44031039B02F5E07243F8E4
:10A5E0002210019A039B02F5E07253F822309DF885
:10A5F000032012041146019A1943039B02F5E072ED
:10A6000043F8221000BF05B05DF804FB00B585B02B
:10A61000019001AB1846FFF755FF0390039800F037
:10A6200020F80246019B22FA03F303F001031846C7
:10A6300005B05DF804FB00B585B0019001AB18468C
:10A64000FFF740FF0390019A039B02F5E07253F875
:10A6500022301B0C03F00303DBB2184605B05DF893
:10A6600004FB82B00190019BD3F81035184602B06C
:10A670007047000000B587B00390029101924FF03F
:10A68000A0430493039A029B1344012B04D912495B
:10A6900040F2F12003F088FB039B059311E0059B3A
:10A6A0009B0018336B4453F8083C1846FFF7D9FF5A
:10A6B0000246019B1A60019B04330193059B013301
:10A6C0000593039A029B1344059A9A42E7D300BF6D
:10A6D00000BF07B05DF804FB8C1A030084B0019042
:10A6E0000091009B0393019BDB080293019B03F005
:10A6F000070301930122019B02FA03F30399029AD3
:10A700000A4412781340184604B0704784B0019090
:10A710000091009B0393019BDB080293019B03F0D4
:10A7200007030193039A029B13441B785AB2012139
:10A73000019B01FA03F35BB2134359B2039A029BE4
:10A740001344CAB21A7000BF04B0704782B00190BF
:10A750000C4A019B1344303393F90030002B09DB82
:10A76000084A019B1344303393F90030072B01DC76
:10A77000012300E0002303F00103DBB2184602B01E
:10A78000704700BFC020002082B00190064A019BA4
:10A790001344303393F90030072BCCBF012300233F
:10A7A000DBB2184602B07047C020002082B0019092
:10A7B000064A019B1344303393F90030DB43DBB28C
:10A7C000DB09DBB2184602B0704700BFC020002092
:10A7D00084B00390029101928DF80330029B59B22C
:10A7E0000E4A039B134430330A461A700B49029BEE
:10A7F000019A41F823209DF8033083F00103DBB276
:10A80000002B08D0029B083B039A51B2034A134421
:10A810000A4683F8502000BF04B07047C0200020D3
:10A8200082B00190044A019B13443033FF221A7016
:10A8300000BF02B0704700BFC020002000B583B049
:10A84000019004490198FFF761FF00BF03B05DF874
:10A8500004FB00BF1421002082B00190044A019B38
:10A860001344303393F90030184602B0704700BFEC
:10A87000C020002082B00190034A019B52F823308F
:10A88000184602B0704700BFC020002000B589B054
:10A890000390029113468DF80730FF238DF81F3087
:10A8A0009DF80730002B01D0002300E0082305931A
:10A8B0009DF80730002B01D0082300E00C230493FF
:10A8C000059B069314E00F4A069B52F82330B3F120
:10A8D000FF3F0AD19DF80730029A06990398FFF7C7
:10A8E00077FF069B8DF81F3006E0069B0133069329
:10A8F000069A049B9A42E6D39DF91F30184609B088
:10A900005DF804FBC020002082B003468DF80730BC
:10A910009DF80730094A4FF0FF3142F823109DF8A7
:10A920000730072B07D99DF80730083B034A13442B
:10A93000FF2283F8502000BF02B07047C0200020E3
:10A9400000B583B0254B93F85830002B03D0082373
:10A950000193019B3EE000238DF8033009E09DF850
:10A9600003301846FFF75CFF9DF8033001338DF884
:10A9700003309DF803301F2BF1D900238DF80330ED
:10A9800009E09DF803301846FFF7BEFF9DF803303D
:10A9900001338DF803309DF803300B2BF1D90422DD
:10A9A00000210F4806F080F906210620FFF78CFCF5
:10A9B0000620FFF7B5FC4FF4BE70FFF7D9FC4FF04F
:10A9C0000040FFF7FDFC054B012283F858200023CF
:10A9D0000193019B184603B05DF804FBC0200020E2
:10A9E0001421002000B587B0039002910192039BCF
:10A9F0001F2B04D936494FF4017003F0D5F9002319
:10AA000005930398FFF7D2FE0346002B02D00823DC
:10AA1000059357E0029B9B78C3F34003DBB21A46D1
:10AA200001990398FFF732FF03468DF813309DF923
:10AA30001330B3F1FF3F43D0029B9B78C3F38003F5
:10AA4000DBB283F00103DBB2002B13D0029B9B78B7
:10AA500003F00103DBB2002B03D00398FFF78CFD5A
:10AA600005E0029B5B7819460398FFF770FD039899
:10AA7000FFF7E4FE029B9B7803F00203DBB2002B9E
:10AA800008D09DF91300029B1B781A460399FFF723
:10AA9000C5FC17E09DF91330083B0E4A134493F9A7
:10AAA0005010029B1B789B015AB29DF91330083B52
:10AAB0000A4351B2074A13440A4683F8502001E082
:10AAC00004230593059B184607B05DF804FB00BFFF
:10AAD000C41A0300C020002000B589B001900B46C5
:10AAE0008DF80330019B1F2B04D93D494FF40D70A5
:10AAF00003F05AF90198FFF759FE0346002B04D1E1
:10AB0000374940F2352003F04FF90198FFF73CFE3A
:10AB10000346002B2FD00198FFF79EFE0346083B0B
:10AB2000304A134493F950308DF80F309DF80F30B0
:10AB30009B098DF80E309DF80E30032B0BD1019838
:10AB4000FFF764FD0346002B01D0032300E002233E
:10AB50008DF81F3008E09DF80E30012B01D1022343
:10AB600000E003238DF81F309DF81F30194601982F
:10AB7000FFF71EFD30E00198FFF7E8FD0346002BCC
:10AB80002AD00198FFF768FE03460693069B9BB206
:10AB900040339BB29B00ADF81630069B1846FFF77A
:10ABA00027FCBDF816301846FFF7E2FB9DF803308E
:10ABB000002B11D00198FFF74FFE03461846FFF710
:10ABC00059FE0490049B002B06D00122069B02FA3A
:10ABD00003F31846FFF7F4FB00BF09B05DF804FB70
:10ABE000C41A0300C020002000B595B000231093C4
:10ABF000002303934FF48073ADF83A30012312938E
:10AC000000230F9321E0BDF83A301846FFF79BFB75
:10AC10000346002B0ED01298FFF7DEFB0346002BF5
:10AC200008D0BDF83A301846FFF7A2FB109A129BE5
:10AC300013431093129B5B001293BDF83A30043318
:10AC4000ADF83A300F9B01330F930F9B072BDAD9E6
:10AC50004FF4BE70FFF777FB0346002B0DD04FF487
:10AC6000BE70FFF785FB109B43F00043109303ABCE
:10AC70001A4601210020FFF7FDFC109BDBB2002BE0
:10AC800029D00123129300230F9321E0129A109BE5
:10AC90001340002B16D00F98FFF7F2FB0D900F9882
:10ACA000FFF7FEFB03468DF833300F98FFF7E2FD08
:10ACB0000B900B9B002B05D09DF833200B9B11466E
:10ACC0000D989847129B5B0012930F9B01330F93D3
:10ACD0000F9B072BDAD9109B002B80F2EE8000230C
:10ACE0008DF84F3000230293002311930AE0119B4B
:10ACF0009B0050336B444FF0FF3243F84C2C119BB8
:10AD000001331193119B002BF1D000238DF84F30AC
:10AD100000230F9378E06B4A0F9B1344503393F951
:10AD200000308DF82B309DF82B3023F0C0030993B1
:10AD3000644A0F9B1344503393F90030B3F1FF3F43
:10AD40005FD001AB19460998FFF7C8FC0346002BFA
:10AD500057D09DF82B309B098DF823300998FFF7C9
:10AD60007BFD03461846FFF785FD0790079B002BE8
:10AD700003D19DF82330032B43D19DF82330032BBF
:10AD800004D102AB19460998FFF7C0FC0998FFF7F8
:10AD900052FC03468DF81B3003AB19460998FFF7A8
:10ADA0009DFC0590059B002B03D09DF81B30022BCA
:10ADB00006D0059B002B24D19DF81B30032B20D1FE
:10ADC0009DF82330032B13D19DF81B30022B01D1AA
:10ADD000032300E002238DF813309DF81330194649
:10ADE0000998FFF7E5FB9DF84F3001338DF84F30A0
:10ADF000079B002B05D09DF82320079B114609983F
:10AE000098470F9B01330F930F9B032B83D99DF81A
:10AE10004F30002B4CD001238DF84E306B461A4634
:10AE200001210020FFF726FC0023119314E0119B61
:10AE30009B0050336B4453F8502C119B9B005033B4
:10AE40006B4453F8443C9A4203D000238DF84E30B3
:10AE500005E0119B01331193119B002BE7D09DF866
:10AE60004E30002B03D000238DF84F3020E000231C
:10AE700011931AE0119B9B0050336B4453F8502CF4
:10AE8000119B9B0050336B4443F8442C119B9B0057
:10AE900050336B4453F8482C119B9B0050336B4448
:10AEA00043F84C2C119B01331193119B002BE1D0E3
:10AEB0009DF84F30002B7FF428AF00BF15B05DF830
:10AEC00004FB00BFC020002008B5064B1B68002B08
:10AED00003D10549512002F067FF024B1B689847D8
:10AEE00000BF08BD1C210020201B030082B0019080
:10AEF000019B044A934201D1034B00E00023184612
:10AF000002B07047002000401C21002000B587B02F
:10AF100001900091019B002B03D11C49772002F086
:10AF200043FF0198FFF7E2FF0590059B002B25D01A
:10AF300000238DF8133000238DF80B300DF10B0337
:10AF40001846FDF70FFA059B1B79002B03D0012350
:10AF50008DF8133005E0059B009A1A60059B0122CD
:10AF60001A719DF80B301846FDF712FA9DF8133050
:10AF7000002B03D011230393039B02E000230393D0
:10AF8000039B184607B05DF804FB00BF201B0300BD
:10AF900000B585B00190019B002B03D10A499B208D
:10AFA00002F002FF0198FFF7A1FF0390039B002B23
:10AFB00005D0039B00221A60039B00221A7100BF78
:10AFC00005B05DF804FB00BF201B030082B0034600
:10AFD0008DF807309DF8073003F01F0205499DF9F1
:10AFE00007305B09012000FA02F241F8232000BF7C
:10AFF00002B0704700E100E082B003468DF80730F0
:10B000009DF8073003F01F0206499DF907305B09E0
:10B01000012000FA02F2203341F8232000BF02B0E1
:10B02000704700BF00E100E082B003468DF80730B2
:10B030009DF8073003F01F0206499DF907305B09B0
:10B04000012000FA02F2603341F8232000BF02B071
:10B05000704700BF00E100E082B0034600918DF828
:10B0600007309DF90730002B0CDA009BDAB20C494F
:10B070009DF8073003F00F03043B5201D2B20B449A
:10B080001A7609E0009BDAB206499DF907305201B1
:10B09000D2B20B4483F8002300BF02B0704700BF58
:10B0A00000ED00E000E100E082B00190019B1B0B8D
:10B0B0005BB2184602B0704700B583B003460A463B
:10B0C0008DF8073013468DF806309DF80630012BB9
:10B0D00003D99DF80630032B0BD99DF80630042BBD
:10B0E00003D99DF80630072B03D908496B2002F0DD
:10B0F0005BFE9DF806209DF9073011461846FFF7C4
:10B10000ABFF00BF03B05DF804FB00BF781B03007A
:10B1100000B583B003468DF807309DF90730184617
:10B12000FFF782FF9DF907301846FFF74FFF00BF7A
:10B1300003B05DF804FB00B583B003468DF807301B
:10B140009DF907301846FFF757FF00BF03B05DF8C1
:10B1500004FB84B001900B46ADF80230BDF802301C
:10B16000019A134400221A60BDF80230019A134478
:10B170001B680393039B00BF04B0704782B001902B
:10B180000B46ADF80230BDF80230019A13441B683B
:10B19000002B14BF01230023DBB2184602B0704716
:10B1A00082B001900091019B009AC3F8042300BF74
:10B1B00002B0704782B001900091019BD3F8042344
:10B1C000009B1340002B14BF01230023DBB2184661
:10B1D00002B0704782B001900091019B009AC3F8C1
:10B1E000082300BF02B0704784B00190019BD3F8E0
:10B1F00080340393019B039AC3F88024039B184671
:10B2000004B0704782B00190019B0422C3F800256E
:10B2100000BF02B0704782B00190019B0022C3F8CA
:10B22000002500BF02B0704784B0039002910192E4
:10B23000039B019AC3F81425039B029AC3F80C25BB
:10B2400000BF04B0704700B583B001904FF0FF32EB
:10B250004FF0FF310198FFF7E7FF00BF03B05DF843
:10B2600004FB82B00190019BD3F80C35184602B064
:10B27000704782B00190019BD3F81435184602B094
:10B28000704782B00190019BD3F80835184602B090
:10B29000704782B00190019BD3F81035184602B078
:10B2A000704784B0039002910192039B029AC3F805
:10B2B0000825039B019AC3F8102500BF04B070470E
:10B2C00000B583B001904FF0FF324FF0FF3101988D
:10B2D000FFF7E7FF00BF03B05DF804FB82B0019009
:10B2E000019BD3F81835DBB2184602B0704782B024
:10B2F00001900B468DF803309DF80320019BC3F8A5
:10B300001C2500BF02B0704782B001900B468DF83B
:10B3100003309DF80330019A134401221A6000BFE4
:10B3200002B0704782B001900B468DF8033013468F
:10B330008DF802309DF803209DF802301343DBB2F4
:10B340001A46019BC3F86C2500BF02B0704782B05B
:10B3500001900091019B009AC3F8242500BF02B020
:10B360007047000000B583B00190019B1B681F2B44
:10B3700004D905494FF4E87002F016FD4FF0A043E0
:10B38000184603B05DF804FBA81B030000B585B0A8
:10B390000190084611461A4603468DF803300B46C5
:10B3A0008DF8023013468DF8013001AB1846FFF7D7
:10B3B000D9FF03909DF803209DF802305B001A43EB
:10B3C0009DF801309B001A439DF818301B0242EA99
:10B3D00003019DF81C301B04019A1943039B02F5DD
:10B3E000E07243F8221000BF05B05DF804FB00B521
:10B3F00085B00390002301930023009300230122D2
:10B4000001210398FFF7C2FF00BF05B05DF804FB00
:10B4100000B585B003900B468DF80B309DF80B30CE
:10B420000022019200220092002200210398FFF7DF
:10B43000ADFF00BF05B05DF804FB00B585B003901B
:10B44000002301930023009300230122002103988D
:10B45000FFF79CFF00BF05B05DF804FB00B585B0A9
:10B46000019001AB1846FFF77DFF0390019B01227D
:10B4700002FA03F31946039800F004F800BF05B080
:10B480005DF804FB82B001900091019B009AC3F823
:10B49000082500BF02B0704700B583B0019000914D
:10B4A000009B1B68B3F1FF3F09D0009B1B68184647
:10B4B000FFF7D4FF009B1B681846FFF798FF009B1F
:10B4C0005B68B3F1FF3F05D0009B5B680021184625
:10B4D000FFF79EFF019B1A68009B9B691946104667
:10B4E000FFF735FF019B1868009B597D009B1B7D72
:10B4F0001A46FFF717FF019B1868009B1968009B0D
:10B500005B681A46FFF790FE009B1B7D012B22D142
:10B51000009B9B68B3F1FF3F05D0009B9B68002117
:10B520001846FFF775FF009BDB68B3F1FF3F09D0BA
:10B53000009BDB681846FFF791FF009BDB6818460D
:10B54000FFF755FF019B1868009BD968009B9B681B
:10B550001A46FFF7A6FE00BF03B05DF804FB00002B
:10B5600000B583B001900B468DF80330019B1B683A
:10B570004FF48E711846FFF7ECFD019B1B684FF4EA
:10B58000A2711846FFF7E5FD019B1B680E4918469E
:10B59000FFF706FE019B1B681846FFF785FD034673
:10B5A0001A469DF8033019461046FFF785FD019BAA
:10B5B0001B681846FFF778FD03461846FFF7A8FDFD
:10B5C00000BF03B05DF804FB8000020000B583B04B
:10B5D0000190019B1B6808491846FFF7FBFD019B82
:10B5E0001B681846FFF760FD03461846FFF7A3FDEA
:10B5F00000BF03B05DF804FB8402020000B587B011
:10B600000190019B1B681846FFF72BFE0590019BDC
:10B610001B681846FFF72DFE0490019B1B68184617
:10B62000FFF72FFE0390019B1B681846FFF731FEC2
:10B630000290019B1B681846FFF705FE019B1B68E3
:10B640001846FFF73DFE059BB3F1FF3F02D005987A
:10B65000FFF7F3FE049BB3F1FF3F02D00498FFF71E
:10B66000ECFE029BB3F1FF3F02D00298FFF7E5FE2C
:10B67000039BB3F1FF3F02D00398FFF7DEFE00BF4C
:10B6800007B05DF804FB000000B587B0039002919D
:10B690000192029B002B03D12D49AA2002F084FBCA
:10B6A000039B1B791A462C2302FB03F3294A1344FC
:10B6B000049300230593049B93F82A30002B03D0B6
:10B6C00008230593059B3EE0039B1A68039B1B79A7
:10B6D0001946214B53F8213019461046FFF716FC46
:10B6E0000346002B03D011230593059B2BE0029901
:10B6F0000398FFF7D1FE049B019A5A60029B1A69D6
:10B70000049B1A60049B5B68002B05D0029B1B7F87
:10B7100019460398FFF724FF039B1B681846FFF7A1
:10B7200071FD049B00229A61049B0022DA61049B54
:10B73000002283F82920049B00225A61049B0122E5
:10B7400083F82A20059B184607B05DF804FB00BF6C
:10B75000E01B030024210020341C030000B585B049
:10B760000190019B1B791A462C2302FB03F3114A1B
:10B7700013440393019B1B681846FFF74CFD039B82
:10B780005B68002B02D00198FFF720FF0198FFF7BC
:10B7900035FF019B1B681846FFF7FAFB039B00224D
:10B7A00083F82A20039B00225A6000BF05B05DF891
:10B7B00004FB00BF2421002000B585B0019000915A
:10B7C0004FF48E710198FFF7C4FC009B9A68009BB0
:10B7D0001B6A13441B788DF80F30009B1B6A5A1CA0
:10B7E000009B1A629DF80F3019460198FFF77FFD04
:10B7F00000BF05B05DF804FB00B583B00190009177
:10B8000016E0009B93F82830DBB2002B01D0002318
:10B8100015E04FF48E710198FFF7B0FC034683F0FA
:10B820000103DBB2002BECD100990198FFF7C4FFB4
:10B83000009B1A6A009B5B699A42EAD3012318466F
:10B8400003B05DF804FB000000B587B003900291DF
:10B850000192039B1B791A462C2302FB03F33C4AFB
:10B8600013440493049B93F82A30012B04D03949E4
:10B8700040F2151002F098FA029B002B04D13549D2
:10B880004FF48B7002F090FA019B002B04D13149E8
:10B8900040F2171002F088FA039800F05DF80346B2
:10B8A000002B03D011230593059B4CE0049B019AC8
:10B8B0005A61049B029A9A60049B00221A62049BBC
:10B8C000002283F8282000230593039B1B684FF474
:10B8D0008E711846FFF73DFC039B1B680821184634
:10B8E000FFF712FD039B1B6804991846FFF764FFDE
:10B8F000049B5B68002B25D1039B1B6804991846A9
:10B90000FFF77AFF034683F00103DBB2002B02D07E
:10B910000F23059313E000BF039B1B684FF48E7148
:10B920001846FFF72BFC034683F00103DBB2002B24
:10B93000F2D1039B1B680C211846FFF7E5FC049B22
:10B9400000225A61059B184607B05DF804FB00BF52
:10B9500024210020E01B030082B00190019B1B7991
:10B960001946074A2C2301FB03F3134414331B68C5
:10B97000002B14BF01230023DBB2184602B070472E
:10B980002421002010B582B001900091009B9B699A
:10B99000002B08D14FF484710198FFF7DAFB01986E
:10B9A000FFF79CFC13E04FF484710198FFF7D1FB83
:10B9B000009BDA68009B5B6AD4180198FFF78EFC45
:10B9C00003462370009B5B6A5A1C009B5A6202B0BC
:10B9D00010BD00B589B003900291019201238DF84A
:10B9E0001030029B0693019B0593039B5B68039AAF
:10B9F000116804AA1046984700BF09B05DF804FB1F
:10BA000000B587B00190009100238DF80830009BAD
:10BA10000493019B9B680393019B00225A61019B45
:10BA20005B68019A116802AA1046984700BF07B0E8
:10BA30005DF804FB00B589B0019000914FF40071EE
:10BA40000198FFF7B7FB0346002B39D04FF49271F2
:10BA50000198FFF793FB0346002B31D04FF492710E
:10BA60000198FFF776FB4FF401710198FFF7B2FBE5
:10BA7000009B93F8293083F00103DBB2002B03D045
:10BA800004210198FFF740FC02238DF8083001984B
:10BA9000FFF7AAFB03460593009B9B690493009B59
:10BAA000DB680393009B00229A61009B0022DA610D
:10BAB000009B5B68009A116802AA1046984752E002
:10BAC00004210198FFF776FB0346002B4BD04FF47F
:10BAD00084710198FFF752FB0346002B43D0009975
